{
  "contractName": "TweetManager",
  "abi": [
    {
      "inputs": [],
      "stateMutability": "nonpayable",
      "type": "constructor"
    },
    {
      "anonymous": false,
      "inputs": [
        {
          "indexed": true,
          "internalType": "address",
          "name": "previousOwner",
          "type": "address"
        },
        {
          "indexed": true,
          "internalType": "address",
          "name": "newOwner",
          "type": "address"
        }
      ],
      "name": "OwnershipTransferred",
      "type": "event"
    },
    {
      "anonymous": false,
      "inputs": [
        {
          "indexed": true,
          "internalType": "address",
          "name": "userAddress",
          "type": "address"
        },
        {
          "indexed": false,
          "internalType": "string",
          "name": "content",
          "type": "string"
        }
      ],
      "name": "TweetCreated",
      "type": "event"
    },
    {
      "anonymous": false,
      "inputs": [
        {
          "indexed": true,
          "internalType": "address",
          "name": "userAddress",
          "type": "address"
        },
        {
          "indexed": false,
          "internalType": "string",
          "name": "content",
          "type": "string"
        }
      ],
      "name": "TweetDeleted",
      "type": "event"
    },
    {
      "anonymous": false,
      "inputs": [
        {
          "indexed": true,
          "internalType": "address",
          "name": "userAddress",
          "type": "address"
        }
      ],
      "name": "UserBanned",
      "type": "event"
    },
    {
      "anonymous": false,
      "inputs": [
        {
          "indexed": true,
          "internalType": "address",
          "name": "userAddress",
          "type": "address"
        }
      ],
      "name": "UserUnbanned",
      "type": "event"
    },
    {
      "inputs": [],
      "name": "owner",
      "outputs": [
        {
          "internalType": "address",
          "name": "",
          "type": "address"
        }
      ],
      "stateMutability": "view",
      "type": "function",
      "constant": true
    },
    {
      "inputs": [],
      "name": "renounceOwnership",
      "outputs": [],
      "stateMutability": "nonpayable",
      "type": "function"
    },
    {
      "inputs": [
        {
          "internalType": "address",
          "name": "newOwner",
          "type": "address"
        }
      ],
      "name": "transferOwnership",
      "outputs": [],
      "stateMutability": "nonpayable",
      "type": "function"
    },
    {
      "inputs": [],
      "name": "tweetCount",
      "outputs": [
        {
          "internalType": "uint256",
          "name": "",
          "type": "uint256"
        }
      ],
      "stateMutability": "view",
      "type": "function",
      "constant": true
    },
    {
      "inputs": [
        {
          "internalType": "uint256",
          "name": "",
          "type": "uint256"
        }
      ],
      "name": "tweets",
      "outputs": [
        {
          "internalType": "uint256",
          "name": "id",
          "type": "uint256"
        },
        {
          "internalType": "address",
          "name": "user",
          "type": "address"
        },
        {
          "internalType": "string",
          "name": "content",
          "type": "string"
        },
        {
          "internalType": "bool",
          "name": "liked",
          "type": "bool"
        }
      ],
      "stateMutability": "view",
      "type": "function",
      "constant": true
    },
    {
      "inputs": [
        {
          "internalType": "address",
          "name": "",
          "type": "address"
        },
        {
          "internalType": "uint256",
          "name": "",
          "type": "uint256"
        }
      ],
      "name": "userTweetIds",
      "outputs": [
        {
          "internalType": "uint256",
          "name": "",
          "type": "uint256"
        }
      ],
      "stateMutability": "view",
      "type": "function",
      "constant": true
    },
    {
      "inputs": [
        {
          "internalType": "string",
          "name": "_content",
          "type": "string"
        }
      ],
      "name": "createTweet",
      "outputs": [
        {
          "internalType": "bool",
          "name": "",
          "type": "bool"
        }
      ],
      "stateMutability": "nonpayable",
      "type": "function"
    },
    {
      "inputs": [
        {
          "internalType": "uint256",
          "name": "id",
          "type": "uint256"
        }
      ],
      "name": "deleteTweet",
      "outputs": [
        {
          "internalType": "bool",
          "name": "",
          "type": "bool"
        }
      ],
      "stateMutability": "nonpayable",
      "type": "function"
    },
    {
      "inputs": [
        {
          "internalType": "uint256",
          "name": "id",
          "type": "uint256"
        }
      ],
      "name": "likeTweet",
      "outputs": [
        {
          "internalType": "bool",
          "name": "",
          "type": "bool"
        }
      ],
      "stateMutability": "nonpayable",
      "type": "function"
    },
    {
      "inputs": [
        {
          "internalType": "uint256",
          "name": "id",
          "type": "uint256"
        }
      ],
      "name": "unlikeTweet",
      "outputs": [
        {
          "internalType": "bool",
          "name": "",
          "type": "bool"
        }
      ],
      "stateMutability": "nonpayable",
      "type": "function"
    },
    {
      "inputs": [
        {
          "internalType": "address",
          "name": "user",
          "type": "address"
        }
      ],
      "name": "getTweetsByUser",
      "outputs": [
        {
          "internalType": "uint256[]",
          "name": "",
          "type": "uint256[]"
        }
      ],
      "stateMutability": "view",
      "type": "function",
      "constant": true
    },
    {
      "inputs": [
        {
          "internalType": "address",
          "name": "user",
          "type": "address"
        }
      ],
      "name": "banUser",
      "outputs": [],
      "stateMutability": "nonpayable",
      "type": "function"
    },
    {
      "inputs": [
        {
          "internalType": "address",
          "name": "user",
          "type": "address"
        }
      ],
      "name": "unbanUser",
      "outputs": [],
      "stateMutability": "nonpayable",
      "type": "function"
    },
    {
      "inputs": [
        {
          "internalType": "address",
          "name": "user",
          "type": "address"
        }
      ],
      "name": "isUserBanned",
      "outputs": [
        {
          "internalType": "int256",
          "name": "",
          "type": "int256"
        }
      ],
      "stateMutability": "view",
      "type": "function",
      "constant": true
    }
  ],
  "bytecode": "0x6080604052600060015534801561001557600080fd5b5061001f33610024565b610074565b600080546001600160a01b038381166001600160a01b0319831681178455604051919092169283917f8be0079c531659141344cd1fd0a4f28419497f9722a3daafe3b4186f6b6457e09190a35050565b6112ac806100836000396000f3fe608060405234801561001057600080fd5b50600436106100ea5760003560e01c8063707c54e51161008c5780638da5cb5b116100665780638da5cb5b146101e35780639ed9b4fd146101fe578063e8d857b014610211578063f2fde38b1461023457600080fd5b8063707c54e5146101a8578063715018a6146101c85780637c9cd2bc146101d057600080fd5b80634a7782b3116100c85780634a7782b3146101665780634d12b6951461016f5780635775912a146101825780635ffc6ceb1461019557600080fd5b80630f679917146100ef57806310d86b1f146101155780631d86e9041461012a575b600080fd5b6101026100fd366004610edd565b610247565b6040519081526020015b60405180910390f35b610128610123366004610f07565b610278565b005b610156610138366004610f29565b6000908152600260205260409020600301805460ff19169055600190565b604051901515815260200161010c565b61010260015481565b61012861017d366004610f07565b61042a565b610156610190366004610f29565b6105fd565b6101566101a3366004610f29565b6108aa565b6101bb6101b6366004610f07565b610937565b60405161010c9190610f42565b6101286109a3565b6101566101de366004610f9c565b6109e8565b6000546040516001600160a01b03909116815260200161010c565b61010261020c366004610f07565b610c05565b61022461021f366004610f29565b610c6f565b60405161010c949392919061109a565b610128610242366004610f07565b610d2e565b6003602052816000526040600020818154811061026357600080fd5b90600052602060002001600091509150505481565b3361028b6000546001600160a01b031690565b6001600160a01b0316146102ba5760405162461bcd60e51b81526004016102b1906110d7565b60405180910390fd5b336001600160a01b03821614156103135760405162461bcd60e51b815260206004820152601760248201527f596f752063616e6e6f742062616e20796f757273656c6600000000000000000060448201526064016102b1565b6001600160a01b03811661035b5760405162461bcd60e51b815260206004820152600f60248201526e496e76616c6964206164647265737360881b60448201526064016102b1565b600061036682610c05565b9050600081126103b15760405162461bcd60e51b8152602060048201526016602482015275155cd95c881a5cc8185b1c9958591e4818985b9b995960521b60448201526064016102b1565b6004805460018101825560009182527f8a35acfbc15ff81a39ae7d344fd709f28e8600b4aa8c65c6b64bfe7fe36bd19b0180546001600160a01b0319166001600160a01b03851690811790915560405190917f8f411ad66fd8225d9c3c7c72fd2429139958913fa5c5114dce1c984e069a4f6991a25050565b3361043d6000546001600160a01b031690565b6001600160a01b0316146104635760405162461bcd60e51b81526004016102b1906110d7565b6001600160a01b0381166104ab5760405162461bcd60e51b815260206004820152600f60248201526e496e76616c6964206164647265737360881b60448201526064016102b1565b60006104b682610c05565b905060008112156105185760405162461bcd60e51b815260206004820152602660248201527f43616e6e6f7420756e62616e206120757365722077686f20776173206e6f742060448201526518985b9b995960d21b60648201526084016102b1565b6004805461052890600190611122565b8154811061053857610538611139565b600091825260209091200154600480546001600160a01b03909216918390811061056457610564611139565b9060005260206000200160006101000a8154816001600160a01b0302191690836001600160a01b0316021790555060048054806105a3576105a361114f565b600082815260208120820160001990810180546001600160a01b03191690559091019091556040516001600160a01b038416917f26d6a37a4abb33fb6e942eb5bf6c659ea2b3031d99159305ec4fdd0adc7551cf91a25050565b6000818152600260205260408120600101546001600160a01b031633146106725760405162461bcd60e51b815260206004820152602360248201527f596f752063616e206f6e6c792064656c65746520796f7572206f776e2074776560448201526265747360e81b60648201526084016102b1565b6000828152600260209081526040808320600101546001600160a01b03168084526003835281842080548351818602810186019094528084529194939091908301828280156106e057602002820191906000526020600020905b8154815260200190600101908083116106cc575b5050505050905060005b81518110156107e9578482828151811061070657610706611139565b602002602001015114156107d7576001600160a01b0383166000908152600360205260409020825161073a90600190611122565b8154811061074a5761074a611139565b906000526020600020015460036000856001600160a01b03166001600160a01b03168152602001908152602001600020828154811061078b5761078b611139565b60009182526020808320909101929092556001600160a01b03851681526003909152604090208054806107c0576107c061114f565b600190038181906000526020600020016000905590555b806107e181611165565b9150506106ea565b50600084815260026020819052604091829020600181015492516001600160a01b03909316927f47b5a33c0b3fbbea45f2c862d684b10ba6bb4e9f4807de9765e5e44a02d4b4bb9261083c9201906111bb565b60405180910390a2604080516020808201808452600080845288815260029283905293909320915161087393929091019190610e28565b50505060009182525060026020526040812060038101805460ff19169055600180820180546001600160a01b031916905591905590565b6000818152600260205260408120600101546001600160a01b03163314156109145760405162461bcd60e51b815260206004820152601e60248201527f596f752063616e6e6f74206c696b6520796f7572206f776e207477656574000060448201526064016102b1565b506000908152600260205260409020600301805460ff1916600190811790915590565b6001600160a01b03811660009081526003602090815260409182902080548351818402810184019094528084526060939283018282801561099757602002820191906000526020600020905b815481526020019060010190808311610983575b50505050509050919050565b336109b66000546001600160a01b031690565b6001600160a01b0316146109dc5760405162461bcd60e51b81526004016102b1906110d7565b6109e66000610dd8565b565b6000806109f433610c05565b12610a4f5760405162461bcd60e51b815260206004820152602560248201527f596f75206172652062616e6e656420616e642063616e6e6f742073656e642074604482015264776565747360d81b60648201526084016102b1565b6000825111610a985760405162461bcd60e51b815260206004820152601560248201527454776565742063616e6e6f7420626520656d70747960581b60448201526064016102b1565b610118825110610af95760405162461bcd60e51b815260206004820152602660248201527f5477656574206d757374206265206c657373207468616e20323830206368617260448201526561637465727360d01b60648201526084016102b1565b60018054906000610b0983611165565b9091555050604080516080810182526001805480835233602080850191825284860188815260006060870181905293845260028083529690932085518155915193820180546001600160a01b0319166001600160a01b03909516949094179093559051805193949193610b8493928501929190910190610e28565b50606091909101516003918201805460ff1916911515919091179055336000818152602092835260408082206001805482549182018355918452949092209093015590517f5495a385bc0553e9472beb042ac561422d0ffcb14a8b0b6f464ec52548779f9890610bf5908590611263565b60405180910390a2506001919050565b6000600019815b600454811015610c6857836001600160a01b031660048281548110610c3357610c33611139565b6000918252602090912001546001600160a01b03161415610c5657809150610c68565b80610c6081611165565b915050610c0c565b5092915050565b600260208190526000918252604090912080546001820154928201805491936001600160a01b03169291610ca290611180565b80601f0160208091040260200160405190810160405280929190818152602001828054610cce90611180565b8015610d1b5780601f10610cf057610100808354040283529160200191610d1b565b820191906000526020600020905b815481529060010190602001808311610cfe57829003601f168201915b5050506003909301549192505060ff1684565b33610d416000546001600160a01b031690565b6001600160a01b031614610d675760405162461bcd60e51b81526004016102b1906110d7565b6001600160a01b038116610dcc5760405162461bcd60e51b815260206004820152602660248201527f4f776e61626c653a206e6577206f776e657220697320746865207a65726f206160448201526564647265737360d01b60648201526084016102b1565b610dd581610dd8565b50565b600080546001600160a01b038381166001600160a01b0319831681178455604051919092169283917f8be0079c531659141344cd1fd0a4f28419497f9722a3daafe3b4186f6b6457e09190a35050565b828054610e3490611180565b90600052602060002090601f016020900481019282610e565760008555610e9c565b82601f10610e6f57805160ff1916838001178555610e9c565b82800160010185558215610e9c579182015b82811115610e9c578251825591602001919060010190610e81565b50610ea8929150610eac565b5090565b5b80821115610ea85760008155600101610ead565b80356001600160a01b0381168114610ed857600080fd5b919050565b60008060408385031215610ef057600080fd5b610ef983610ec1565b946020939093013593505050565b600060208284031215610f1957600080fd5b610f2282610ec1565b9392505050565b600060208284031215610f3b57600080fd5b5035919050565b6020808252825182820181905260009190848201906040850190845b81811015610f7a57835183529284019291840191600101610f5e565b50909695505050505050565b634e487b7160e01b600052604160045260246000fd5b600060208284031215610fae57600080fd5b813567ffffffffffffffff80821115610fc657600080fd5b818401915084601f830112610fda57600080fd5b813581811115610fec57610fec610f86565b604051601f8201601f19908116603f0116810190838211818310171561101457611014610f86565b8160405282815287602084870101111561102d57600080fd5b826020860160208301376000928101602001929092525095945050505050565b6000815180845260005b8181101561107357602081850181015186830182015201611057565b81811115611085576000602083870101525b50601f01601f19169290920160200192915050565b8481526001600160a01b03841660208201526080604082018190526000906110c49083018561104d565b9050821515606083015295945050505050565b6020808252818101527f4f776e61626c653a2063616c6c6572206973206e6f7420746865206f776e6572604082015260600190565b634e487b7160e01b600052601160045260246000fd5b6000828210156111345761113461110c565b500390565b634e487b7160e01b600052603260045260246000fd5b634e487b7160e01b600052603160045260246000fd5b60006000198214156111795761117961110c565b5060010190565b600181811c9082168061119457607f821691505b602082108114156111b557634e487b7160e01b600052602260045260246000fd5b50919050565b600060208083526000845481600182811c9150808316806111dd57607f831692505b8583108114156111fb57634e487b7160e01b85526022600452602485fd5b878601838152602001818015611218576001811461122957611254565b60ff19861682528782019650611254565b60008b81526020902060005b8681101561124e57815484820152908501908901611235565b83019750505b50949998505050505050505050565b602081526000610f22602083018461104d56fea2646970667358221220403a3161fe0a6a17cd83f7df8f7e404e7c6087eefef7bb49a5f93c8e4f16cc5864736f6c634300080b0033",
  "immutableReferences": {},
  "source": "//SPDX-License-Identifier: MIT\r\npragma solidity >=0.4.22 <0.9.0;\r\nimport \"./Ownable.sol\";\r\nimport \"./ITweetManager.sol\";\r\n\r\n/// @title Tweet Manager Contract\r\n/// @dev Implementation of the {ITweetManager} interface\r\n\r\ncontract TweetManager is ITweetManager, Ownable {\r\n    uint public tweetCount = 0;\r\n\r\n    ///@param id The tweet id\r\n    ///@param user The address of the user who created the tweet\r\n    ///@param content The content of the tweet\r\n    ///@param liked The liked status of the tweet\r\n    struct Tweet {\r\n        uint id;\r\n        address user;\r\n        string content;\r\n        bool liked;\r\n    }\r\n\r\n    mapping(uint => Tweet) public tweets;\r\n    mapping(address => uint[]) public userTweetIds;\r\n    address[] bannedUsers;\r\n\r\n    ///@dev This event is emitted when a user is banned\r\n    ///@param userAddress The address of the user\r\n    event UserBanned(address indexed userAddress);\r\n\r\n    ///@dev This event is emitted when a user is unbanned\r\n    ///@param userAddress The address of the user\r\n    event UserUnbanned(address indexed userAddress);\r\n\r\n    constructor() {}\r\n\r\n    ///@dev Create a Tweet object and stores it in the tweets mapping\r\n    ///@param _content The content of the tweet\r\n    ///@return A boolean that tells if the operation was a success\r\n    function createTweet(string memory _content)\r\n        public\r\n        override\r\n        returns (bool)\r\n    {\r\n        require(\r\n            isUserBanned(msg.sender) < 0,\r\n            \"You are banned and cannot send tweets\"\r\n        );\r\n        require(bytes(_content).length > 0, \"Tweet cannot be empty\");\r\n        require(\r\n            bytes(_content).length < 280,\r\n            \"Tweet must be less than 280 characters\"\r\n        );\r\n        tweetCount++;\r\n        tweets[tweetCount] = Tweet(tweetCount, msg.sender, _content, false);\r\n        userTweetIds[msg.sender].push(tweetCount);\r\n        emit TweetCreated(msg.sender, _content);\r\n\r\n        return true;\r\n    }\r\n\r\n    ///@dev Delete a tweet from the tweets mapping\r\n    ///@param id The id of the tweet\r\n    ///@return A boolean that tells if the operation was a success\r\n    function deleteTweet(uint id) public override returns (bool) {\r\n        require(\r\n            msg.sender == tweets[id].user,\r\n            \"You can only delete your own tweets\"\r\n        );\r\n\r\n        //delete tweet id from userTweetIds\r\n        address user = tweets[id].user;\r\n        uint[] memory userTweets = userTweetIds[user];\r\n        for (uint i = 0; i < userTweets.length; i++) {\r\n            if (userTweets[i] == id) {\r\n                //copy last element into current spot and then pop last element\r\n                userTweetIds[user][i] = userTweetIds[user][\r\n                    userTweets.length - 1\r\n                ];\r\n                userTweetIds[user].pop();\r\n            }\r\n        }\r\n\r\n        emit TweetDeleted(tweets[id].user, tweets[id].content);\r\n\r\n        tweets[id].content = \"\";\r\n        tweets[id].liked = false;\r\n        tweets[id].user = address(0);\r\n        tweets[id].id = 0;\r\n\r\n        return true;\r\n    }\r\n\r\n    ///@dev Like a tweet\r\n    ///@param id The id of the tweet\r\n    ///@return A boolean that tells if the operation was a success\r\n    function likeTweet(uint id) public override returns (bool) {\r\n        if (msg.sender == tweets[id].user) {\r\n            revert(\"You cannot like your own tweet\");\r\n        }\r\n        tweets[id].liked = true;\r\n        return true;\r\n    }\r\n\r\n    ///@dev Unlike a tweet\r\n    ///@param id The id of the tweet\r\n    ///@return A boolean that tells if the operation was a success\r\n    function unlikeTweet(uint id) public override returns (bool) {\r\n        tweets[id].liked = false;\r\n        return true;\r\n    }\r\n\r\n    ///@dev Get all the ids of the tweets a user has made.\r\n    ///@param user The address of the user\r\n    ///@return A uint array of tweet ids\r\n    function getTweetsByUser(address user)\r\n        public\r\n        view\r\n        returns (uint[] memory)\r\n    {\r\n        return userTweetIds[user];\r\n    }\r\n\r\n    ///@dev Ban a user\r\n    ///@param user The address of the user\r\n    function banUser(address user) public onlyOwner {\r\n        require(msg.sender != user, \"You cannot ban yourself\");\r\n        require(user != address(0), \"Invalid address\");\r\n        int256 userIndex = isUserBanned(user);\r\n        require(userIndex < 0, \"User is already banned\");\r\n        bannedUsers.push(user);\r\n        emit UserBanned(user);\r\n    }\r\n\r\n    ///@dev Unban a user\r\n    ///@param user The address of the user\r\n    function unbanUser(address user) public onlyOwner {\r\n        require(user != address(0), \"Invalid address\");\r\n        int256 userIndex = isUserBanned(user);\r\n        require(userIndex >= 0, \"Cannot unban a user who was not banned\");\r\n        bannedUsers[uint(userIndex)] = bannedUsers[bannedUsers.length - 1];\r\n        bannedUsers.pop();\r\n        emit UserUnbanned(user);\r\n    }\r\n\r\n    ///@dev Check if a user is banned\r\n    ///@param user The address of the user\r\n    ///@return An int that has a value greater than -1 if the user is banned \r\n    function isUserBanned(address user) public view returns (int) {\r\n        int index = -1;\r\n        for (uint i = 0; i < bannedUsers.length; i++) {\r\n            if (bannedUsers[i] == user) {\r\n                index = int(i);\r\n                break;\r\n            }\r\n        }\r\n        return index;\r\n    }\r\n}\r\n",
  "sourcePath": "C:/WORK/TRAINING/ConsensysAcademy/final-project/contracts/TweetManager.sol",
  "compiler": {
    "name": "solc",
    "version": "0.8.11+commit.d7f03943.Emscripten.clang"
  },
  "schemaVersion": "3.3.4",
  "updatedAt": "2022-01-07T19:42:44.235Z",
  "networkType": "ethereum",
  "devdoc": {
    "details": "Implementation of the {ITweetManager} interface",
    "events": {
      "UserBanned(address)": {
        "details": "This event is emitted when a user is banned",
        "params": {
          "userAddress": "The address of the user"
        }
      },
      "UserUnbanned(address)": {
        "details": "This event is emitted when a user is unbanned",
        "params": {
          "userAddress": "The address of the user"
        }
      }
    },
    "kind": "dev",
    "methods": {
      "banUser(address)": {
        "details": "Ban a user",
        "params": {
          "user": "The address of the user"
        }
      },
      "createTweet(string)": {
        "details": "Create a Tweet object and stores it in the tweets mapping",
        "params": {
          "_content": "The content of the tweet"
        },
        "returns": {
          "_0": "A boolean that tells if the operation was a success"
        }
      },
      "deleteTweet(uint256)": {
        "details": "Delete a tweet from the tweets mapping",
        "params": {
          "id": "The id of the tweet"
        },
        "returns": {
          "_0": "A boolean that tells if the operation was a success"
        }
      },
      "getTweetsByUser(address)": {
        "details": "Get all the ids of the tweets a user has made.",
        "params": {
          "user": "The address of the user"
        },
        "returns": {
          "_0": "A uint array of tweet ids"
        }
      },
      "isUserBanned(address)": {
        "details": "Check if a user is banned",
        "params": {
          "user": "The address of the user"
        },
        "returns": {
          "_0": "An int that has a value greater than -1 if the user is banned "
        }
      },
      "likeTweet(uint256)": {
        "details": "Like a tweet",
        "params": {
          "id": "The id of the tweet"
        },
        "returns": {
          "_0": "A boolean that tells if the operation was a success"
        }
      },
      "owner()": {
        "details": "Returns the address of the current owner."
      },
      "renounceOwnership()": {
        "details": "Leaves the contract without owner. It will not be possible to call `onlyOwner` functions anymore. Can only be called by the current owner. NOTE: Renouncing ownership will leave the contract without an owner, thereby removing any functionality that is only available to the owner."
      },
      "transferOwnership(address)": {
        "details": "Transfers ownership of the contract to a new account (`newOwner`). Can only be called by the current owner."
      },
      "unbanUser(address)": {
        "details": "Unban a user",
        "params": {
          "user": "The address of the user"
        }
      },
      "unlikeTweet(uint256)": {
        "details": "Unlike a tweet",
        "params": {
          "id": "The id of the tweet"
        },
        "returns": {
          "_0": "A boolean that tells if the operation was a success"
        }
      }
    },
    "title": "Tweet Manager Contract",
    "version": 1
  },
  "userdoc": {
    "kind": "user",
    "methods": {},
    "version": 1
  }
}